{
  "_format": "hh-sol-artifact-1",
  "contractName": "GovernanceToken",
  "sourceName": "contracts/GovernanceToken.sol",
  "abi": [
    {
      "inputs": [],
      "stateMutability": "nonpayable",
      "type": "constructor"
    },
    {
      "inputs": [],
      "name": "CheckpointUnorderedInsertion",
      "type": "error"
    },
    {
      "inputs": [],
      "name": "ECDSAInvalidSignature",
      "type": "error"
    },
    {
      "inputs": [
        {
          "internalType": "uint256",
          "name": "length",
          "type": "uint256"
        }
      ],
      "name": "ECDSAInvalidSignatureLength",
      "type": "error"
    },
    {
      "inputs": [
        {
          "internalType": "bytes32",
          "name": "s",
          "type": "bytes32"
        }
      ],
      "name": "ECDSAInvalidSignatureS",
      "type": "error"
    },
    {
      "inputs": [
        {
          "internalType": "uint256",
          "name": "increasedSupply",
          "type": "uint256"
        },
        {
          "internalType": "uint256",
          "name": "cap",
          "type": "uint256"
        }
      ],
      "name": "ERC20ExceededSafeSupply",
      "type": "error"
    },
    {
      "inputs": [
        {
          "internalType": "address",
          "name": "spender",
          "type": "address"
        },
        {
          "internalType": "uint256",
          "name": "allowance",
          "type": "uint256"
        },
        {
          "internalType": "uint256",
          "name": "needed",
          "type": "uint256"
        }
      ],
      "name": "ERC20InsufficientAllowance",
      "type": "error"
    },
    {
      "inputs": [
        {
          "internalType": "address",
          "name": "sender",
          "type": "address"
        },
        {
          "internalType": "uint256",
          "name": "balance",
          "type": "uint256"
        },
        {
          "internalType": "uint256",
          "name": "needed",
          "type": "uint256"
        }
      ],
      "name": "ERC20InsufficientBalance",
      "type": "error"
    },
    {
      "inputs": [
        {
          "internalType": "address",
          "name": "approver",
          "type": "address"
        }
      ],
      "name": "ERC20InvalidApprover",
      "type": "error"
    },
    {
      "inputs": [
        {
          "internalType": "address",
          "name": "receiver",
          "type": "address"
        }
      ],
      "name": "ERC20InvalidReceiver",
      "type": "error"
    },
    {
      "inputs": [
        {
          "internalType": "address",
          "name": "sender",
          "type": "address"
        }
      ],
      "name": "ERC20InvalidSender",
      "type": "error"
    },
    {
      "inputs": [
        {
          "internalType": "address",
          "name": "spender",
          "type": "address"
        }
      ],
      "name": "ERC20InvalidSpender",
      "type": "error"
    },
    {
      "inputs": [
        {
          "internalType": "uint256",
          "name": "deadline",
          "type": "uint256"
        }
      ],
      "name": "ERC2612ExpiredSignature",
      "type": "error"
    },
    {
      "inputs": [
        {
          "internalType": "address",
          "name": "signer",
          "type": "address"
        },
        {
          "internalType": "address",
          "name": "owner",
          "type": "address"
        }
      ],
      "name": "ERC2612InvalidSigner",
      "type": "error"
    },
    {
      "inputs": [
        {
          "internalType": "uint256",
          "name": "timepoint",
          "type": "uint256"
        },
        {
          "internalType": "uint48",
          "name": "clock",
          "type": "uint48"
        }
      ],
      "name": "ERC5805FutureLookup",
      "type": "error"
    },
    {
      "inputs": [],
      "name": "ERC6372InconsistentClock",
      "type": "error"
    },
    {
      "inputs": [
        {
          "internalType": "address",
          "name": "account",
          "type": "address"
        },
        {
          "internalType": "uint256",
          "name": "currentNonce",
          "type": "uint256"
        }
      ],
      "name": "InvalidAccountNonce",
      "type": "error"
    },
    {
      "inputs": [],
      "name": "InvalidShortString",
      "type": "error"
    },
    {
      "inputs": [
        {
          "internalType": "uint8",
          "name": "bits",
          "type": "uint8"
        },
        {
          "internalType": "uint256",
          "name": "value",
          "type": "uint256"
        }
      ],
      "name": "SafeCastOverflowedUintDowncast",
      "type": "error"
    },
    {
      "inputs": [
        {
          "internalType": "string",
          "name": "str",
          "type": "string"
        }
      ],
      "name": "StringTooLong",
      "type": "error"
    },
    {
      "inputs": [
        {
          "internalType": "uint256",
          "name": "expiry",
          "type": "uint256"
        }
      ],
      "name": "VotesExpiredSignature",
      "type": "error"
    },
    {
      "anonymous": false,
      "inputs": [
        {
          "indexed": true,
          "internalType": "address",
          "name": "owner",
          "type": "address"
        },
        {
          "indexed": true,
          "internalType": "address",
          "name": "spender",
          "type": "address"
        },
        {
          "indexed": false,
          "internalType": "uint256",
          "name": "value",
          "type": "uint256"
        }
      ],
      "name": "Approval",
      "type": "event"
    },
    {
      "anonymous": false,
      "inputs": [
        {
          "indexed": true,
          "internalType": "address",
          "name": "delegator",
          "type": "address"
        },
        {
          "indexed": true,
          "internalType": "address",
          "name": "fromDelegate",
          "type": "address"
        },
        {
          "indexed": true,
          "internalType": "address",
          "name": "toDelegate",
          "type": "address"
        }
      ],
      "name": "DelegateChanged",
      "type": "event"
    },
    {
      "anonymous": false,
      "inputs": [
        {
          "indexed": true,
          "internalType": "address",
          "name": "delegate",
          "type": "address"
        },
        {
          "indexed": false,
          "internalType": "uint256",
          "name": "previousVotes",
          "type": "uint256"
        },
        {
          "indexed": false,
          "internalType": "uint256",
          "name": "newVotes",
          "type": "uint256"
        }
      ],
      "name": "DelegateVotesChanged",
      "type": "event"
    },
    {
      "anonymous": false,
      "inputs": [],
      "name": "EIP712DomainChanged",
      "type": "event"
    },
    {
      "anonymous": false,
      "inputs": [
        {
          "indexed": true,
          "internalType": "address",
          "name": "from",
          "type": "address"
        },
        {
          "indexed": true,
          "internalType": "address",
          "name": "to",
          "type": "address"
        },
        {
          "indexed": false,
          "internalType": "uint256",
          "name": "value",
          "type": "uint256"
        }
      ],
      "name": "Transfer",
      "type": "event"
    },
    {
      "inputs": [],
      "name": "CLOCK_MODE",
      "outputs": [
        {
          "internalType": "string",
          "name": "",
          "type": "string"
        }
      ],
      "stateMutability": "view",
      "type": "function"
    },
    {
      "inputs": [],
      "name": "DOMAIN_SEPARATOR",
      "outputs": [
        {
          "internalType": "bytes32",
          "name": "",
          "type": "bytes32"
        }
      ],
      "stateMutability": "view",
      "type": "function"
    },
    {
      "inputs": [
        {
          "internalType": "address",
          "name": "owner",
          "type": "address"
        },
        {
          "internalType": "address",
          "name": "spender",
          "type": "address"
        }
      ],
      "name": "allowance",
      "outputs": [
        {
          "internalType": "uint256",
          "name": "",
          "type": "uint256"
        }
      ],
      "stateMutability": "view",
      "type": "function"
    },
    {
      "inputs": [
        {
          "internalType": "address",
          "name": "spender",
          "type": "address"
        },
        {
          "internalType": "uint256",
          "name": "value",
          "type": "uint256"
        }
      ],
      "name": "approve",
      "outputs": [
        {
          "internalType": "bool",
          "name": "",
          "type": "bool"
        }
      ],
      "stateMutability": "nonpayable",
      "type": "function"
    },
    {
      "inputs": [
        {
          "internalType": "address",
          "name": "account",
          "type": "address"
        }
      ],
      "name": "balanceOf",
      "outputs": [
        {
          "internalType": "uint256",
          "name": "",
          "type": "uint256"
        }
      ],
      "stateMutability": "view",
      "type": "function"
    },
    {
      "inputs": [
        {
          "internalType": "address",
          "name": "account",
          "type": "address"
        },
        {
          "internalType": "uint32",
          "name": "pos",
          "type": "uint32"
        }
      ],
      "name": "checkpoints",
      "outputs": [
        {
          "components": [
            {
              "internalType": "uint48",
              "name": "_key",
              "type": "uint48"
            },
            {
              "internalType": "uint208",
              "name": "_value",
              "type": "uint208"
            }
          ],
          "internalType": "struct Checkpoints.Checkpoint208",
          "name": "",
          "type": "tuple"
        }
      ],
      "stateMutability": "view",
      "type": "function"
    },
    {
      "inputs": [],
      "name": "clock",
      "outputs": [
        {
          "internalType": "uint48",
          "name": "",
          "type": "uint48"
        }
      ],
      "stateMutability": "view",
      "type": "function"
    },
    {
      "inputs": [],
      "name": "decimals",
      "outputs": [
        {
          "internalType": "uint8",
          "name": "",
          "type": "uint8"
        }
      ],
      "stateMutability": "view",
      "type": "function"
    },
    {
      "inputs": [
        {
          "internalType": "address",
          "name": "delegatee",
          "type": "address"
        }
      ],
      "name": "delegate",
      "outputs": [],
      "stateMutability": "nonpayable",
      "type": "function"
    },
    {
      "inputs": [
        {
          "internalType": "address",
          "name": "delegatee",
          "type": "address"
        },
        {
          "internalType": "uint256",
          "name": "nonce",
          "type": "uint256"
        },
        {
          "internalType": "uint256",
          "name": "expiry",
          "type": "uint256"
        },
        {
          "internalType": "uint8",
          "name": "v",
          "type": "uint8"
        },
        {
          "internalType": "bytes32",
          "name": "r",
          "type": "bytes32"
        },
        {
          "internalType": "bytes32",
          "name": "s",
          "type": "bytes32"
        }
      ],
      "name": "delegateBySig",
      "outputs": [],
      "stateMutability": "nonpayable",
      "type": "function"
    },
    {
      "inputs": [
        {
          "internalType": "address",
          "name": "account",
          "type": "address"
        }
      ],
      "name": "delegates",
      "outputs": [
        {
          "internalType": "address",
          "name": "",
          "type": "address"
        }
      ],
      "stateMutability": "view",
      "type": "function"
    },
    {
      "inputs": [],
      "name": "eip712Domain",
      "outputs": [
        {
          "internalType": "bytes1",
          "name": "fields",
          "type": "bytes1"
        },
        {
          "internalType": "string",
          "name": "name",
          "type": "string"
        },
        {
          "internalType": "string",
          "name": "version",
          "type": "string"
        },
        {
          "internalType": "uint256",
          "name": "chainId",
          "type": "uint256"
        },
        {
          "internalType": "address",
          "name": "verifyingContract",
          "type": "address"
        },
        {
          "internalType": "bytes32",
          "name": "salt",
          "type": "bytes32"
        },
        {
          "internalType": "uint256[]",
          "name": "extensions",
          "type": "uint256[]"
        }
      ],
      "stateMutability": "view",
      "type": "function"
    },
    {
      "inputs": [
        {
          "internalType": "uint256",
          "name": "timepoint",
          "type": "uint256"
        }
      ],
      "name": "getPastTotalSupply",
      "outputs": [
        {
          "internalType": "uint256",
          "name": "",
          "type": "uint256"
        }
      ],
      "stateMutability": "view",
      "type": "function"
    },
    {
      "inputs": [
        {
          "internalType": "address",
          "name": "account",
          "type": "address"
        },
        {
          "internalType": "uint256",
          "name": "timepoint",
          "type": "uint256"
        }
      ],
      "name": "getPastVotes",
      "outputs": [
        {
          "internalType": "uint256",
          "name": "",
          "type": "uint256"
        }
      ],
      "stateMutability": "view",
      "type": "function"
    },
    {
      "inputs": [
        {
          "internalType": "address",
          "name": "account",
          "type": "address"
        }
      ],
      "name": "getVotes",
      "outputs": [
        {
          "internalType": "uint256",
          "name": "",
          "type": "uint256"
        }
      ],
      "stateMutability": "view",
      "type": "function"
    },
    {
      "inputs": [],
      "name": "name",
      "outputs": [
        {
          "internalType": "string",
          "name": "",
          "type": "string"
        }
      ],
      "stateMutability": "view",
      "type": "function"
    },
    {
      "inputs": [
        {
          "internalType": "address",
          "name": "owner",
          "type": "address"
        }
      ],
      "name": "nonces",
      "outputs": [
        {
          "internalType": "uint256",
          "name": "",
          "type": "uint256"
        }
      ],
      "stateMutability": "view",
      "type": "function"
    },
    {
      "inputs": [
        {
          "internalType": "address",
          "name": "account",
          "type": "address"
        }
      ],
      "name": "numCheckpoints",
      "outputs": [
        {
          "internalType": "uint32",
          "name": "",
          "type": "uint32"
        }
      ],
      "stateMutability": "view",
      "type": "function"
    },
    {
      "inputs": [
        {
          "internalType": "address",
          "name": "owner",
          "type": "address"
        },
        {
          "internalType": "address",
          "name": "spender",
          "type": "address"
        },
        {
          "internalType": "uint256",
          "name": "value",
          "type": "uint256"
        },
        {
          "internalType": "uint256",
          "name": "deadline",
          "type": "uint256"
        },
        {
          "internalType": "uint8",
          "name": "v",
          "type": "uint8"
        },
        {
          "internalType": "bytes32",
          "name": "r",
          "type": "bytes32"
        },
        {
          "internalType": "bytes32",
          "name": "s",
          "type": "bytes32"
        }
      ],
      "name": "permit",
      "outputs": [],
      "stateMutability": "nonpayable",
      "type": "function"
    },
    {
      "inputs": [],
      "name": "symbol",
      "outputs": [
        {
          "internalType": "string",
          "name": "",
          "type": "string"
        }
      ],
      "stateMutability": "view",
      "type": "function"
    },
    {
      "inputs": [],
      "name": "totalSupply",
      "outputs": [
        {
          "internalType": "uint256",
          "name": "",
          "type": "uint256"
        }
      ],
      "stateMutability": "view",
      "type": "function"
    },
    {
      "inputs": [
        {
          "internalType": "address",
          "name": "to",
          "type": "address"
        },
        {
          "internalType": "uint256",
          "name": "value",
          "type": "uint256"
        }
      ],
      "name": "transfer",
      "outputs": [
        {
          "internalType": "bool",
          "name": "",
          "type": "bool"
        }
      ],
      "stateMutability": "nonpayable",
      "type": "function"
    },
    {
      "inputs": [
        {
          "internalType": "address",
          "name": "from",
          "type": "address"
        },
        {
          "internalType": "address",
          "name": "to",
          "type": "address"
        },
        {
          "internalType": "uint256",
          "name": "value",
          "type": "uint256"
        }
      ],
      "name": "transferFrom",
      "outputs": [
        {
          "internalType": "bool",
          "name": "",
          "type": "bool"
        }
      ],
      "stateMutability": "nonpayable",
      "type": "function"
    }
  ],
  "bytecode": "0x61016060405269d3c21bcecceda1000000600b553480156200002057600080fd5b506040518060400160405280600f81526020017f476f7665726e616e6365546f6b656e0000000000000000000000000000000000815250806040518060400160405280600181526020017f31000000000000000000000000000000000000000000000000000000000000008152506040518060400160405280600f81526020017f476f7665726e616e6365546f6b656e00000000000000000000000000000000008152506040518060400160405280600281526020017f475400000000000000000000000000000000000000000000000000000000000081525081600390816200010b91906200140d565b5080600490816200011d91906200140d565b50505062000136600583620001eb60201b90919060201c565b610120818152505062000154600682620001eb60201b90919060201c565b6101408181525050818051906020012060e08181525050808051906020012061010081815250504660a08181525050620001936200024360201b60201c565b608081815250503073ffffffffffffffffffffffffffffffffffffffff1660c08173ffffffffffffffffffffffffffffffffffffffff1681525050505050620001e533600b54620002a060201b60201c565b62001a1d565b6000602083511015620002115762000209836200032d60201b60201c565b90506200023d565b8262000223836200039a60201b60201c565b60000190816200023491906200140d565b5060ff60001b90505b92915050565b60007f8b73c3c69bb8fe3d512ecc4cf759cc79239f7b179b0ffacaa9a75d522b39400f60e0516101005146306040516020016200028595949392919062001565565b60405160208183030381529060405280519060200120905090565b600073ffffffffffffffffffffffffffffffffffffffff168273ffffffffffffffffffffffffffffffffffffffff1603620003155760006040517fec442f050000000000000000000000000000000000000000000000000000000081526004016200030c9190620015c2565b60405180910390fd5b6200032960008383620003a460201b60201c565b5050565b600080829050601f815111156200037d57826040517f305a27a90000000000000000000000000000000000000000000000000000000081526004016200037491906200166e565b60405180910390fd5b8051816200038b90620016c4565b60001c1760001b915050919050565b6000819050919050565b620003b78383836200047960201b60201c565b600073ffffffffffffffffffffffffffffffffffffffff168373ffffffffffffffffffffffffffffffffffffffff160362000461576000620003fe6200054e60201b60201c565b90506000620004126200055860201b60201c565b9050808211156200045e5781816040517f1cb15d260000000000000000000000000000000000000000000000000000000081526004016200045592919062001734565b60405180910390fd5b50505b620004748383836200057c60201b60201c565b505050565b6200048c8383836200068260201b60201c565b600073ffffffffffffffffffffffffffffffffffffffff168373ffffffffffffffffffffffffffffffffffffffff160362000536576000620004d36200054e60201b60201c565b90506000620004e76200055860201b60201c565b905080821115620005335781816040517f1cb15d260000000000000000000000000000000000000000000000000000000081526004016200052a92919062001734565b60405180910390fd5b50505b620005498383836200057c60201b60201c565b505050565b6000600254905090565b600079ffffffffffffffffffffffffffffffffffffffffffffffffffff8016905090565b600073ffffffffffffffffffffffffffffffffffffffff168373ffffffffffffffffffffffffffffffffffffffff1603620005e357620005e0600a620008b260201b62000d6217620005d484620008ca60201b60201c565b6200093b60201b60201c565b50505b600073ffffffffffffffffffffffffffffffffffffffff168273ffffffffffffffffffffffffffffffffffffffff16036200064a5762000647600a6200098b60201b62000d78176200063b84620008ca60201b60201c565b6200093b60201b60201c565b50505b6200067d6200065f84620009a360201b60201c565b6200067084620009a360201b60201c565b8362000a0c60201b60201c565b505050565b600073ffffffffffffffffffffffffffffffffffffffff168373ffffffffffffffffffffffffffffffffffffffff1603620006d8578060026000828254620006cb919062001790565b92505081905550620007ae565b60008060008573ffffffffffffffffffffffffffffffffffffffff1673ffffffffffffffffffffffffffffffffffffffff1681526020019081526020016000205490508181101562000767578381836040517fe450d38c0000000000000000000000000000000000000000000000000000000081526004016200075e93929190620017cb565b60405180910390fd5b8181036000808673ffffffffffffffffffffffffffffffffffffffff1673ffffffffffffffffffffffffffffffffffffffff16815260200190815260200160002081905550505b600073ffffffffffffffffffffffffffffffffffffffff168273ffffffffffffffffffffffffffffffffffffffff1603620007f9578060026000828254039250508190555062000846565b806000808473ffffffffffffffffffffffffffffffffffffffff1673ffffffffffffffffffffffffffffffffffffffff168152602001908152602001600020600082825401925050819055505b8173ffffffffffffffffffffffffffffffffffffffff168373ffffffffffffffffffffffffffffffffffffffff167fddf252ad1be2c89b69c2b068fc378daa952ba7f163c4a11628f55a4df523b3ef83604051620008a5919062001808565b60405180910390a3505050565b60008183620008c291906200184b565b905092915050565b600079ffffffffffffffffffffffffffffffffffffffffffffffffffff8016821115620009335760d0826040517f6dfcc6500000000000000000000000000000000000000000000000000000000081526004016200092a929190620018f0565b60405180910390fd5b819050919050565b6000806200097f6200095262000cbf60201b60201c565b6200096e620009678862000cd660201b60201c565b868860201c565b8762000d4a60201b9092919060201c565b91509150935093915050565b600081836200099b91906200191d565b905092915050565b6000600860008373ffffffffffffffffffffffffffffffffffffffff1673ffffffffffffffffffffffffffffffffffffffff16815260200190815260200160002060009054906101000a900473ffffffffffffffffffffffffffffffffffffffff169050919050565b8173ffffffffffffffffffffffffffffffffffffffff168373ffffffffffffffffffffffffffffffffffffffff161415801562000a495750600081115b1562000cba57600073ffffffffffffffffffffffffffffffffffffffff168373ffffffffffffffffffffffffffffffffffffffff161462000b845760008062000af3600960008773ffffffffffffffffffffffffffffffffffffffff1673ffffffffffffffffffffffffffffffffffffffff1681526020019081526020016000206200098b60201b62000d781762000ae786620008ca60201b60201c565b6200093b60201b60201c565b79ffffffffffffffffffffffffffffffffffffffffffffffffffff16915079ffffffffffffffffffffffffffffffffffffffffffffffffffff1691508473ffffffffffffffffffffffffffffffffffffffff167fdec2bacdd2f05b59de34da9b523dff8be42e5e38e818c82fdb0bae774387a724838360405162000b7992919062001734565b60405180910390a250505b600073ffffffffffffffffffffffffffffffffffffffff168273ffffffffffffffffffffffffffffffffffffffff161462000cb95760008062000c28600960008673ffffffffffffffffffffffffffffffffffffffff1673ffffffffffffffffffffffffffffffffffffffff168152602001908152602001600020620008b260201b62000d621762000c1c86620008ca60201b60201c565b6200093b60201b60201c565b79ffffffffffffffffffffffffffffffffffffffffffffffffffff16915079ffffffffffffffffffffffffffffffffffffffffffffffffffff1691508373ffffffffffffffffffffffffffffffffffffffff167fdec2bacdd2f05b59de34da9b523dff8be42e5e38e818c82fdb0bae774387a724838360405162000cae92919062001734565b60405180910390a250505b5b505050565b600062000cd162000d6f60201b60201c565b905090565b600080826000018054905090506000811462000d3f5762000d0f8360000160018362000d03919062001972565b62000d8760201b60201c565b60000160069054906101000a900479ffffffffffffffffffffffffffffffffffffffffffffffffffff1662000d42565b60005b915050919050565b60008062000d6385600001858562000d9c60201b60201c565b91509150935093915050565b600062000d82436200113660201b60201c565b905090565b60008260005281602060002001905092915050565b60008060008580549050905060008111156200104657600062000dd48760018462000dc8919062001972565b62000d8760201b60201c565b6040518060400160405290816000820160009054906101000a900465ffffffffffff1665ffffffffffff1665ffffffffffff1681526020016000820160069054906101000a900479ffffffffffffffffffffffffffffffffffffffffffffffffffff1679ffffffffffffffffffffffffffffffffffffffffffffffffffff1679ffffffffffffffffffffffffffffffffffffffffffffffffffff168152505090508565ffffffffffff16816000015165ffffffffffff16111562000ec4576040517f2520601d00000000000000000000000000000000000000000000000000000000815260040160405180910390fd5b8565ffffffffffff16816000015165ffffffffffff160362000f54578462000f018860018562000ef5919062001972565b62000d8760201b60201c565b60000160066101000a81548179ffffffffffffffffffffffffffffffffffffffffffffffffffff021916908379ffffffffffffffffffffffffffffffffffffffffffffffffffff16021790555062001034565b8660405180604001604052808865ffffffffffff1681526020018779ffffffffffffffffffffffffffffffffffffffffffffffffffff168152509080600181540180825580915050600190039060005260206000200160009091909190915060008201518160000160006101000a81548165ffffffffffff021916908365ffffffffffff16021790555060208201518160000160066101000a81548179ffffffffffffffffffffffffffffffffffffffffffffffffffff021916908379ffffffffffffffffffffffffffffffffffffffffffffffffffff16021790555050505b8060200151859350935050506200112e565b8560405180604001604052808765ffffffffffff1681526020018679ffffffffffffffffffffffffffffffffffffffffffffffffffff168152509080600181540180825580915050600190039060005260206000200160009091909190915060008201518160000160006101000a81548165ffffffffffff021916908365ffffffffffff16021790555060208201518160000160066101000a81548179ffffffffffffffffffffffffffffffffffffffffffffffffffff021916908379ffffffffffffffffffffffffffffffffffffffffffffffffffff160217905550505060008492509250505b935093915050565b600065ffffffffffff80168211156200118b576030826040517f6dfcc65000000000000000000000000000000000000000000000000000000000815260040162001182929190620019f0565b60405180910390fd5b819050919050565b600081519050919050565b7f4e487b7100000000000000000000000000000000000000000000000000000000600052604160045260246000fd5b7f4e487b7100000000000000000000000000000000000000000000000000000000600052602260045260246000fd5b600060028204905060018216806200121557607f821691505b6020821081036200122b576200122a620011cd565b5b50919050565b60008190508160005260206000209050919050565b60006020601f8301049050919050565b600082821b905092915050565b600060088302620012957fffffffffffffffffffffffffffffffffffffffffffffffffffffffffffffffff8262001256565b620012a1868362001256565b95508019841693508086168417925050509392505050565b6000819050919050565b6000819050919050565b6000620012ee620012e8620012e284620012b9565b620012c3565b620012b9565b9050919050565b6000819050919050565b6200130a83620012cd565b620013226200131982620012f5565b84845462001263565b825550505050565b600090565b620013396200132a565b62001346818484620012ff565b505050565b5b818110156200136e57620013626000826200132f565b6001810190506200134c565b5050565b601f821115620013bd57620013878162001231565b620013928462001246565b81016020851015620013a2578190505b620013ba620013b18562001246565b8301826200134b565b50505b505050565b600082821c905092915050565b6000620013e260001984600802620013c2565b1980831691505092915050565b6000620013fd8383620013cf565b9150826002028217905092915050565b620014188262001193565b67ffffffffffffffff8111156200143457620014336200119e565b5b620014408254620011fc565b6200144d82828562001372565b600060209050601f83116001811462001485576000841562001470578287015190505b6200147c8582620013ef565b865550620014ec565b601f198416620014958662001231565b60005b82811015620014bf5784890151825560018201915060208501945060208101905062001498565b86831015620014df5784890151620014db601f891682620013cf565b8355505b6001600288020188555050505b505050505050565b6000819050919050565b6200150981620014f4565b82525050565b6200151a81620012b9565b82525050565b600073ffffffffffffffffffffffffffffffffffffffff82169050919050565b60006200154d8262001520565b9050919050565b6200155f8162001540565b82525050565b600060a0820190506200157c6000830188620014fe565b6200158b6020830187620014fe565b6200159a6040830186620014fe565b620015a960608301856200150f565b620015b8608083018462001554565b9695505050505050565b6000602082019050620015d9600083018462001554565b92915050565b600082825260208201905092915050565b60005b8381101562001610578082015181840152602081019050620015f3565b60008484015250505050565b6000601f19601f8301169050919050565b60006200163a8262001193565b620016468185620015df565b935062001658818560208601620015f0565b62001663816200161c565b840191505092915050565b600060208201905081810360008301526200168a81846200162d565b905092915050565b600081519050919050565b6000819050602082019050919050565b6000620016bb8251620014f4565b80915050919050565b6000620016d18262001692565b82620016dd846200169d565b9050620016ea81620016ad565b925060208210156200172d57620017287fffffffffffffffffffffffffffffffffffffffffffffffffffffffffffffffff8360200360080262001256565b831692505b5050919050565b60006040820190506200174b60008301856200150f565b6200175a60208301846200150f565b9392505050565b7f4e487b7100000000000000000000000000000000000000000000000000000000600052601160045260246000fd5b60006200179d82620012b9565b9150620017aa83620012b9565b9250828201905080821115620017c557620017c462001761565b5b92915050565b6000606082019050620017e2600083018662001554565b620017f160208301856200150f565b6200180060408301846200150f565b949350505050565b60006020820190506200181f60008301846200150f565b92915050565b600079ffffffffffffffffffffffffffffffffffffffffffffffffffff82169050919050565b6000620018588262001825565b9150620018658362001825565b9250828201905079ffffffffffffffffffffffffffffffffffffffffffffffffffff8111156200189a576200189962001761565b5b92915050565b6000819050919050565b600060ff82169050919050565b6000620018d8620018d2620018cc84620018a0565b620012c3565b620018aa565b9050919050565b620018ea81620018b7565b82525050565b6000604082019050620019076000830185620018df565b6200191660208301846200150f565b9392505050565b60006200192a8262001825565b9150620019378362001825565b9250828203905079ffffffffffffffffffffffffffffffffffffffffffffffffffff8111156200196c576200196b62001761565b5b92915050565b60006200197f82620012b9565b91506200198c83620012b9565b9250828203905081811115620019a757620019a662001761565b5b92915050565b6000819050919050565b6000620019d8620019d2620019cc84620019ad565b620012c3565b620018aa565b9050919050565b620019ea81620019b7565b82525050565b600060408201905062001a076000830185620019df565b62001a1660208301846200150f565b9392505050565b60805160a05160c05160e05161010051610120516101405161390962001a78600039600061130d015260006112d2015260006117cf015260006117ae01526000610f3401526000610f8a01526000610fb301526139096000f3fe608060405234801561001057600080fd5b506004361061014d5760003560e01c806370a08231116100c35780639ab24eb01161007c5780639ab24eb0146103e4578063a9059cbb14610414578063c3cda52014610444578063d505accf14610460578063dd62ed3e1461047c578063f1127ed8146104ac5761014d565b806370a08231146102f45780637ecebe001461032457806384b0196e146103545780638e539e8c1461037857806391ddadf4146103a857806395d89b41146103c65761014d565b80633644e515116101155780633644e5151461020c5780633a46b1a81461022a5780634bf5d7e91461025a578063587cde1e146102785780635c19a95c146102a85780636fcfff45146102c45761014d565b806306fdde0314610152578063095ea7b31461017057806318160ddd146101a057806323b872dd146101be578063313ce567146101ee575b600080fd5b61015a6104dc565b6040516101679190612bb3565b60405180910390f35b61018a60048036038101906101859190612c6e565b61056e565b6040516101979190612cc9565b60405180910390f35b6101a8610591565b6040516101b59190612cf3565b60405180910390f35b6101d860048036038101906101d39190612d0e565b61059b565b6040516101e59190612cc9565b60405180910390f35b6101f66105ca565b6040516102039190612d7d565b60405180910390f35b6102146105d3565b6040516102219190612db1565b60405180910390f35b610244600480360381019061023f9190612c6e565b6105e2565b6040516102519190612cf3565b60405180910390f35b6102626106bb565b60405161026f9190612bb3565b60405180910390f35b610292600480360381019061028d9190612dcc565b61074f565b60405161029f9190612e08565b60405180910390f35b6102c260048036038101906102bd9190612dcc565b6107b8565b005b6102de60048036038101906102d99190612dcc565b6107d2565b6040516102eb9190612e42565b60405180910390f35b61030e60048036038101906103099190612dcc565b6107e4565b60405161031b9190612cf3565b60405180910390f35b61033e60048036038101906103399190612dcc565b61082c565b60405161034b9190612cf3565b60405180910390f35b61035c61083e565b60405161036f9796959493929190612f56565b60405180910390f35b610392600480360381019061038d9190612fda565b6108e8565b60405161039f9190612cf3565b60405180910390f35b6103b0610983565b6040516103bd9190613028565b60405180910390f35b6103ce610992565b6040516103db9190612bb3565b60405180910390f35b6103fe60048036038101906103f99190612dcc565b610a24565b60405161040b9190612cf3565b60405180910390f35b61042e60048036038101906104299190612c6e565b610a90565b60405161043b9190612cc9565b60405180910390f35b61045e6004803603810190610459919061309b565b610ab3565b005b61047a60048036038101906104759190613128565b610b79565b005b610496600480360381019061049191906131ca565b610cc1565b6040516104a39190612cf3565b60405180910390f35b6104c660048036038101906104c19190613236565b610d48565b6040516104d391906132e9565b60405180910390f35b6060600380546104eb90613333565b80601f016020809104026020016040519081016040528092919081815260200182805461051790613333565b80156105645780601f1061053957610100808354040283529160200191610564565b820191906000526020600020905b81548152906001019060200180831161054757829003601f168201915b5050505050905090565b600080610579610d8e565b9050610586818585610d96565b600191505092915050565b6000600254905090565b6000806105a6610d8e565b90506105b3858285610da8565b6105be858585610e3c565b60019150509392505050565b60006012905090565b60006105dd610f30565b905090565b6000806105ed610983565b90508065ffffffffffff16831061063d5782816040517fecd3f81e000000000000000000000000000000000000000000000000000000008152600401610634929190613364565b60405180910390fd5b61069661064984610fe7565b600960008773ffffffffffffffffffffffffffffffffffffffff1673ffffffffffffffffffffffffffffffffffffffff16815260200190815260200160002061104190919063ffffffff16565b79ffffffffffffffffffffffffffffffffffffffffffffffffffff1691505092915050565b60606106c561113b565b65ffffffffffff166106d5610983565b65ffffffffffff1614610714576040517f6ff0714000000000000000000000000000000000000000000000000000000000815260040160405180910390fd5b6040518060400160405280601d81526020017f6d6f64653d626c6f636b6e756d6265722666726f6d3d64656661756c74000000815250905090565b6000600860008373ffffffffffffffffffffffffffffffffffffffff1673ffffffffffffffffffffffffffffffffffffffff16815260200190815260200160002060009054906101000a900473ffffffffffffffffffffffffffffffffffffffff169050919050565b60006107c2610d8e565b90506107ce818361114b565b5050565b60006107dd8261125f565b9050919050565b60008060008373ffffffffffffffffffffffffffffffffffffffff1673ffffffffffffffffffffffffffffffffffffffff168152602001908152602001600020549050919050565b6000610837826112b7565b9050919050565b6000606080600080600060606108526112c9565b61085a611304565b46306000801b600067ffffffffffffffff81111561087b5761087a61338d565b5b6040519080825280602002602001820160405280156108a95781602001602082028036833780820191505090505b507f0f00000000000000000000000000000000000000000000000000000000000000959493929190965096509650965096509650965090919293949596565b6000806108f3610983565b90508065ffffffffffff1683106109435782816040517fecd3f81e00000000000000000000000000000000000000000000000000000000815260040161093a929190613364565b60405180910390fd5b61095f61094f84610fe7565b600a61104190919063ffffffff16565b79ffffffffffffffffffffffffffffffffffffffffffffffffffff16915050919050565b600061098d61113b565b905090565b6060600480546109a190613333565b80601f01602080910402602001604051908101604052809291908181526020018280546109cd90613333565b8015610a1a5780601f106109ef57610100808354040283529160200191610a1a565b820191906000526020600020905b8154815290600101906020018083116109fd57829003601f168201915b5050505050905090565b6000610a6d600960008473ffffffffffffffffffffffffffffffffffffffff1673ffffffffffffffffffffffffffffffffffffffff16815260200190815260200160002061133f565b79ffffffffffffffffffffffffffffffffffffffffffffffffffff169050919050565b600080610a9b610d8e565b9050610aa8818585610e3c565b600191505092915050565b83421115610af857836040517f4683af0e000000000000000000000000000000000000000000000000000000008152600401610aef9190612cf3565b60405180910390fd5b6000610b5a610b527fe48329057bfd03d55e49b547132e39cffd9c1820ad7b9d4c5307691425d15adf898989604051602001610b3794939291906133bc565b604051602081830303815290604052805190602001206113a7565b8585856113c1565b9050610b6681876113f1565b610b70818861114b565b50505050505050565b83421115610bbe57836040517f62791302000000000000000000000000000000000000000000000000000000008152600401610bb59190612cf3565b60405180910390fd5b60007f6e71edae12b1b97f4d1f60370fef10105fa2faae0126114a169c64845d6126c9888888610bed8c611449565b89604051602001610c0396959493929190613401565b6040516020818303038152906040528051906020012090506000610c26826113a7565b90506000610c36828787876113c1565b90508973ffffffffffffffffffffffffffffffffffffffff168173ffffffffffffffffffffffffffffffffffffffff1614610caa57808a6040517f4b800e46000000000000000000000000000000000000000000000000000000008152600401610ca1929190613462565b60405180910390fd5b610cb58a8a8a610d96565b50505050505050505050565b6000600160008473ffffffffffffffffffffffffffffffffffffffff1673ffffffffffffffffffffffffffffffffffffffff16815260200190815260200160002060008373ffffffffffffffffffffffffffffffffffffffff1673ffffffffffffffffffffffffffffffffffffffff16815260200190815260200160002054905092915050565b610d50612ae5565b610d5a83836114a0565b905092915050565b60008183610d7091906134ba565b905092915050565b60008183610d869190613508565b905092915050565b600033905090565b610da38383836001611501565b505050565b6000610db48484610cc1565b90507fffffffffffffffffffffffffffffffffffffffffffffffffffffffffffffffff8114610e365781811015610e26578281836040517ffb8f41b2000000000000000000000000000000000000000000000000000000008152600401610e1d93929190613556565b60405180910390fd5b610e3584848484036000611501565b5b50505050565b600073ffffffffffffffffffffffffffffffffffffffff168373ffffffffffffffffffffffffffffffffffffffff1603610eae5760006040517f96c6fd1e000000000000000000000000000000000000000000000000000000008152600401610ea59190612e08565b60405180910390fd5b600073ffffffffffffffffffffffffffffffffffffffff168273ffffffffffffffffffffffffffffffffffffffff1603610f205760006040517fec442f05000000000000000000000000000000000000000000000000000000008152600401610f179190612e08565b60405180910390fd5b610f2b8383836116d8565b505050565b60007f000000000000000000000000000000000000000000000000000000000000000073ffffffffffffffffffffffffffffffffffffffff163073ffffffffffffffffffffffffffffffffffffffff16148015610fac57507f000000000000000000000000000000000000000000000000000000000000000046145b15610fd9577f00000000000000000000000000000000000000000000000000000000000000009050610fe4565b610fe1611789565b90505b90565b600065ffffffffffff8016821115611039576030826040517f6dfcc6500000000000000000000000000000000000000000000000000000000081526004016110309291906135d2565b60405180910390fd5b819050919050565b6000808360000180549050905060008082905060058311156110c95760006110688461181f565b8461107391906135fb565b90506110828760000182611918565b60000160009054906101000a900465ffffffffffff1665ffffffffffff168665ffffffffffff1610156110b7578091506110c7565b6001816110c4919061362f565b92505b505b60006110da8760000187858561192d565b90506000811461112c576110fd876000016001836110f891906135fb565b611918565b60000160069054906101000a900479ffffffffffffffffffffffffffffffffffffffffffffffffffff1661112f565b60005b94505050505092915050565b600061114643610fe7565b905090565b60006111568361074f565b905081600860008573ffffffffffffffffffffffffffffffffffffffff1673ffffffffffffffffffffffffffffffffffffffff16815260200190815260200160002060006101000a81548173ffffffffffffffffffffffffffffffffffffffff021916908373ffffffffffffffffffffffffffffffffffffffff1602179055508173ffffffffffffffffffffffffffffffffffffffff168173ffffffffffffffffffffffffffffffffffffffff168473ffffffffffffffffffffffffffffffffffffffff167f3134e8a2e6d97e929a7e54011ea5485d7d196dd5f0ba4d4ef95803e8e3fc257f60405160405180910390a461125a8183611255866119a6565b6119b8565b505050565b60006112b06112ab600960008573ffffffffffffffffffffffffffffffffffffffff1673ffffffffffffffffffffffffffffffffffffffff168152602001908152602001600020611c31565b611c42565b9050919050565b60006112c282611c9a565b9050919050565b60606112ff60057f0000000000000000000000000000000000000000000000000000000000000000611ce390919063ffffffff16565b905090565b606061133a60067f0000000000000000000000000000000000000000000000000000000000000000611ce390919063ffffffff16565b905090565b600080826000018054905090506000811461139c5761136d8360000160018361136891906135fb565b611918565b60000160069054906101000a900479ffffffffffffffffffffffffffffffffffffffffffffffffffff1661139f565b60005b915050919050565b60006113ba6113b4610f30565b83611d93565b9050919050565b6000806000806113d388888888611dd4565b9250925092506113e38282611ec8565b829350505050949350505050565b60006113fc83611449565b90508082146114445782816040517f752d88c000000000000000000000000000000000000000000000000000000000815260040161143b929190613663565b60405180910390fd5b505050565b6000600760008373ffffffffffffffffffffffffffffffffffffffff1673ffffffffffffffffffffffffffffffffffffffff1681526020019081526020016000206000815480929190600101919050559050919050565b6114a8612ae5565b6114f982600960008673ffffffffffffffffffffffffffffffffffffffff1673ffffffffffffffffffffffffffffffffffffffff16815260200190815260200160002061202c90919063ffffffff16565b905092915050565b600073ffffffffffffffffffffffffffffffffffffffff168473ffffffffffffffffffffffffffffffffffffffff16036115735760006040517fe602df0500000000000000000000000000000000000000000000000000000000815260040161156a9190612e08565b60405180910390fd5b600073ffffffffffffffffffffffffffffffffffffffff168373ffffffffffffffffffffffffffffffffffffffff16036115e55760006040517f94280d620000000000000000000000000000000000000000000000000000000081526004016115dc9190612e08565b60405180910390fd5b81600160008673ffffffffffffffffffffffffffffffffffffffff1673ffffffffffffffffffffffffffffffffffffffff16815260200190815260200160002060008573ffffffffffffffffffffffffffffffffffffffff1673ffffffffffffffffffffffffffffffffffffffff1681526020019081526020016000208190555080156116d2578273ffffffffffffffffffffffffffffffffffffffff168473ffffffffffffffffffffffffffffffffffffffff167f8c5be1e5ebec7d5bd14f71427d1e84f3dd0314c0f7b2291e5b200ac8c7c3b925846040516116c99190612cf3565b60405180910390a35b50505050565b6116e3838383612101565b600073ffffffffffffffffffffffffffffffffffffffff168373ffffffffffffffffffffffffffffffffffffffff1603611779576000611721610591565b9050600061172d6121b2565b9050808211156117765781816040517f1cb15d2600000000000000000000000000000000000000000000000000000000815260040161176d92919061368c565b60405180910390fd5b50505b6117848383836121d6565b505050565b60007f8b73c3c69bb8fe3d512ecc4cf759cc79239f7b179b0ffacaa9a75d522b39400f7f00000000000000000000000000000000000000000000000000000000000000007f000000000000000000000000000000000000000000000000000000000000000046306040516020016118049594939291906136b5565b60405160208183030381529060405280519060200120905090565b60008082036118315760009050611913565b6000600161183e84612290565b901c6001901b9050600181848161185857611857613708565b5b048201901c9050600181848161187157611870613708565b5b048201901c9050600181848161188a57611889613708565b5b048201901c905060018184816118a3576118a2613708565b5b048201901c905060018184816118bc576118bb613708565b5b048201901c905060018184816118d5576118d4613708565b5b048201901c905060018184816118ee576118ed613708565b5b048201901c905061190f8182858161190957611908613708565b5b04612371565b9150505b919050565b60008260005281602060002001905092915050565b60005b8183101561199b576000611944848461238a565b90508465ffffffffffff166119598783611918565b60000160009054906101000a900465ffffffffffff1665ffffffffffff16111561198557809250611995565b600181611992919061362f565b93505b50611930565b819050949350505050565b60006119b1826107e4565b9050919050565b8173ffffffffffffffffffffffffffffffffffffffff168373ffffffffffffffffffffffffffffffffffffffff16141580156119f45750600081115b15611c2c57600073ffffffffffffffffffffffffffffffffffffffff168373ffffffffffffffffffffffffffffffffffffffff1614611b1257600080611a83600960008773ffffffffffffffffffffffffffffffffffffffff1673ffffffffffffffffffffffffffffffffffffffff168152602001908152602001600020610d78611a7e866123b0565b61241e565b79ffffffffffffffffffffffffffffffffffffffffffffffffffff16915079ffffffffffffffffffffffffffffffffffffffffffffffffffff1691508473ffffffffffffffffffffffffffffffffffffffff167fdec2bacdd2f05b59de34da9b523dff8be42e5e38e818c82fdb0bae774387a7248383604051611b0792919061368c565b60405180910390a250505b600073ffffffffffffffffffffffffffffffffffffffff168273ffffffffffffffffffffffffffffffffffffffff1614611c2b57600080611b9c600960008673ffffffffffffffffffffffffffffffffffffffff1673ffffffffffffffffffffffffffffffffffffffff168152602001908152602001600020610d62611b97866123b0565b61241e565b79ffffffffffffffffffffffffffffffffffffffffffffffffffff16915079ffffffffffffffffffffffffffffffffffffffffffffffffffff1691508373ffffffffffffffffffffffffffffffffffffffff167fdec2bacdd2f05b59de34da9b523dff8be42e5e38e818c82fdb0bae774387a7248383604051611c2092919061368c565b60405180910390a250505b5b505050565b600081600001805490509050919050565b600063ffffffff8016821115611c92576020826040517f6dfcc650000000000000000000000000000000000000000000000000000000008152600401611c89929190613772565b60405180910390fd5b819050919050565b6000600760008373ffffffffffffffffffffffffffffffffffffffff1673ffffffffffffffffffffffffffffffffffffffff168152602001908152602001600020549050919050565b606060ff60001b8314611d0057611cf98361245e565b9050611d8d565b818054611d0c90613333565b80601f0160208091040260200160405190810160405280929190818152602001828054611d3890613333565b8015611d855780601f10611d5a57610100808354040283529160200191611d85565b820191906000526020600020905b815481529060010190602001808311611d6857829003601f168201915b505050505090505b92915050565b60006040517f190100000000000000000000000000000000000000000000000000000000000081528360028201528260228201526042812091505092915050565b60008060007f7fffffffffffffffffffffffffffffff5d576e7357a4501ddfe92f46681b20a08460001c1115611e14576000600385925092509250611ebe565b600060018888888860405160008152602001604052604051611e39949392919061379b565b6020604051602081039080840390855afa158015611e5b573d6000803e3d6000fd5b505050602060405103519050600073ffffffffffffffffffffffffffffffffffffffff168173ffffffffffffffffffffffffffffffffffffffff1603611eaf57600060016000801b93509350935050611ebe565b8060008060001b935093509350505b9450945094915050565b60006003811115611edc57611edb6137e0565b5b826003811115611eef57611eee6137e0565b5b03156120285760016003811115611f0957611f086137e0565b5b826003811115611f1c57611f1b6137e0565b5b03611f53576040517ff645eedf00000000000000000000000000000000000000000000000000000000815260040160405180910390fd5b60026003811115611f6757611f666137e0565b5b826003811115611f7a57611f796137e0565b5b03611fbf578060001c6040517ffce698f7000000000000000000000000000000000000000000000000000000008152600401611fb69190612cf3565b60405180910390fd5b600380811115611fd257611fd16137e0565b5b826003811115611fe557611fe46137e0565b5b0361202757806040517fd78bce0c00000000000000000000000000000000000000000000000000000000815260040161201e9190612db1565b60405180910390fd5b5b5050565b612034612ae5565b826000018263ffffffff16815481106120505761204f61380f565b5b906000526020600020016040518060400160405290816000820160009054906101000a900465ffffffffffff1665ffffffffffff1665ffffffffffff1681526020016000820160069054906101000a900479ffffffffffffffffffffffffffffffffffffffffffffffffffff1679ffffffffffffffffffffffffffffffffffffffffffffffffffff1679ffffffffffffffffffffffffffffffffffffffffffffffffffff1681525050905092915050565b61210c8383836124d2565b600073ffffffffffffffffffffffffffffffffffffffff168373ffffffffffffffffffffffffffffffffffffffff16036121a257600061214a610591565b905060006121566121b2565b90508082111561219f5781816040517f1cb15d2600000000000000000000000000000000000000000000000000000000815260040161219692919061368c565b60405180910390fd5b50505b6121ad8383836121d6565b505050565b600079ffffffffffffffffffffffffffffffffffffffffffffffffffff8016905090565b600073ffffffffffffffffffffffffffffffffffffffff168373ffffffffffffffffffffffffffffffffffffffff160361222357612220600a610d6261221b846123b0565b61241e565b50505b600073ffffffffffffffffffffffffffffffffffffffff168273ffffffffffffffffffffffffffffffffffffffff16036122705761226d600a610d78612268846123b0565b61241e565b50505b61228b61227c8461074f565b6122858461074f565b836119b8565b505050565b600080600090506000608084901c11156122b257608083901c92506080810190505b6000604084901c11156122cd57604083901c92506040810190505b6000602084901c11156122e857602083901c92506020810190505b6000601084901c111561230357601083901c92506010810190505b6000600884901c111561231e57600883901c92506008810190505b6000600484901c111561233957600483901c92506004810190505b6000600284901c111561235457600283901c92506002810190505b6000600184901c1115612368576001810190505b80915050919050565b60008183106123805781612382565b825b905092915050565b6000600282841861239b919061383e565b8284166123a8919061362f565b905092915050565b600079ffffffffffffffffffffffffffffffffffffffffffffffffffff80168211156124165760d0826040517f6dfcc65000000000000000000000000000000000000000000000000000000000815260040161240d9291906138aa565b60405180910390fd5b819050919050565b60008061245261242c610983565b6124426124388861133f565b868863ffffffff16565b876126f79092919063ffffffff16565b91509150935093915050565b6060600061246b83612714565b90506000602067ffffffffffffffff81111561248a5761248961338d565b5b6040519080825280601f01601f1916602001820160405280156124bc5781602001600182028036833780820191505090505b5090508181528360208201528092505050919050565b600073ffffffffffffffffffffffffffffffffffffffff168373ffffffffffffffffffffffffffffffffffffffff1603612524578060026000828254612518919061362f565b925050819055506125f7565b60008060008573ffffffffffffffffffffffffffffffffffffffff1673ffffffffffffffffffffffffffffffffffffffff168152602001908152602001600020549050818110156125b0578381836040517fe450d38c0000000000000000000000000000000000000000000000000000000081526004016125a793929190613556565b60405180910390fd5b8181036000808673ffffffffffffffffffffffffffffffffffffffff1673ffffffffffffffffffffffffffffffffffffffff16815260200190815260200160002081905550505b600073ffffffffffffffffffffffffffffffffffffffff168273ffffffffffffffffffffffffffffffffffffffff1603612640578060026000828254039250508190555061268d565b806000808473ffffffffffffffffffffffffffffffffffffffff1673ffffffffffffffffffffffffffffffffffffffff168152602001908152602001600020600082825401925050819055505b8173ffffffffffffffffffffffffffffffffffffffff168373ffffffffffffffffffffffffffffffffffffffff167fddf252ad1be2c89b69c2b068fc378daa952ba7f163c4a11628f55a4df523b3ef836040516126ea9190612cf3565b60405180910390a3505050565b600080612708856000018585612764565b91509150935093915050565b60008060ff8360001c169050601f81111561275b576040517fb3512b0c00000000000000000000000000000000000000000000000000000000815260040160405180910390fd5b80915050919050565b60008060008580549050905060008111156129f55760006127918760018461278c91906135fb565b611918565b6040518060400160405290816000820160009054906101000a900465ffffffffffff1665ffffffffffff1665ffffffffffff1681526020016000820160069054906101000a900479ffffffffffffffffffffffffffffffffffffffffffffffffffff1679ffffffffffffffffffffffffffffffffffffffffffffffffffff1679ffffffffffffffffffffffffffffffffffffffffffffffffffff168152505090508565ffffffffffff16816000015165ffffffffffff161115612880576040517f2520601d00000000000000000000000000000000000000000000000000000000815260040160405180910390fd5b8565ffffffffffff16816000015165ffffffffffff160361290457846128b2886001856128ad91906135fb565b611918565b60000160066101000a81548179ffffffffffffffffffffffffffffffffffffffffffffffffffff021916908379ffffffffffffffffffffffffffffffffffffffffffffffffffff1602179055506129e4565b8660405180604001604052808865ffffffffffff1681526020018779ffffffffffffffffffffffffffffffffffffffffffffffffffff168152509080600181540180825580915050600190039060005260206000200160009091909190915060008201518160000160006101000a81548165ffffffffffff021916908365ffffffffffff16021790555060208201518160000160066101000a81548179ffffffffffffffffffffffffffffffffffffffffffffffffffff021916908379ffffffffffffffffffffffffffffffffffffffffffffffffffff16021790555050505b806020015185935093505050612add565b8560405180604001604052808765ffffffffffff1681526020018679ffffffffffffffffffffffffffffffffffffffffffffffffffff168152509080600181540180825580915050600190039060005260206000200160009091909190915060008201518160000160006101000a81548165ffffffffffff021916908365ffffffffffff16021790555060208201518160000160066101000a81548179ffffffffffffffffffffffffffffffffffffffffffffffffffff021916908379ffffffffffffffffffffffffffffffffffffffffffffffffffff160217905550505060008492509250505b935093915050565b6040518060400160405280600065ffffffffffff168152602001600079ffffffffffffffffffffffffffffffffffffffffffffffffffff1681525090565b600081519050919050565b600082825260208201905092915050565b60005b83811015612b5d578082015181840152602081019050612b42565b60008484015250505050565b6000601f19601f8301169050919050565b6000612b8582612b23565b612b8f8185612b2e565b9350612b9f818560208601612b3f565b612ba881612b69565b840191505092915050565b60006020820190508181036000830152612bcd8184612b7a565b905092915050565b600080fd5b600073ffffffffffffffffffffffffffffffffffffffff82169050919050565b6000612c0582612bda565b9050919050565b612c1581612bfa565b8114612c2057600080fd5b50565b600081359050612c3281612c0c565b92915050565b6000819050919050565b612c4b81612c38565b8114612c5657600080fd5b50565b600081359050612c6881612c42565b92915050565b60008060408385031215612c8557612c84612bd5565b5b6000612c9385828601612c23565b9250506020612ca485828601612c59565b9150509250929050565b60008115159050919050565b612cc381612cae565b82525050565b6000602082019050612cde6000830184612cba565b92915050565b612ced81612c38565b82525050565b6000602082019050612d086000830184612ce4565b92915050565b600080600060608486031215612d2757612d26612bd5565b5b6000612d3586828701612c23565b9350506020612d4686828701612c23565b9250506040612d5786828701612c59565b9150509250925092565b600060ff82169050919050565b612d7781612d61565b82525050565b6000602082019050612d926000830184612d6e565b92915050565b6000819050919050565b612dab81612d98565b82525050565b6000602082019050612dc66000830184612da2565b92915050565b600060208284031215612de257612de1612bd5565b5b6000612df084828501612c23565b91505092915050565b612e0281612bfa565b82525050565b6000602082019050612e1d6000830184612df9565b92915050565b600063ffffffff82169050919050565b612e3c81612e23565b82525050565b6000602082019050612e576000830184612e33565b92915050565b60007fff0000000000000000000000000000000000000000000000000000000000000082169050919050565b612e9281612e5d565b82525050565b600081519050919050565b600082825260208201905092915050565b6000819050602082019050919050565b612ecd81612c38565b82525050565b6000612edf8383612ec4565b60208301905092915050565b6000602082019050919050565b6000612f0382612e98565b612f0d8185612ea3565b9350612f1883612eb4565b8060005b83811015612f49578151612f308882612ed3565b9750612f3b83612eeb565b925050600181019050612f1c565b5085935050505092915050565b600060e082019050612f6b600083018a612e89565b8181036020830152612f7d8189612b7a565b90508181036040830152612f918188612b7a565b9050612fa06060830187612ce4565b612fad6080830186612df9565b612fba60a0830185612da2565b81810360c0830152612fcc8184612ef8565b905098975050505050505050565b600060208284031215612ff057612fef612bd5565b5b6000612ffe84828501612c59565b91505092915050565b600065ffffffffffff82169050919050565b61302281613007565b82525050565b600060208201905061303d6000830184613019565b92915050565b61304c81612d61565b811461305757600080fd5b50565b60008135905061306981613043565b92915050565b61307881612d98565b811461308357600080fd5b50565b6000813590506130958161306f565b92915050565b60008060008060008060c087890312156130b8576130b7612bd5565b5b60006130c689828a01612c23565b96505060206130d789828a01612c59565b95505060406130e889828a01612c59565b94505060606130f989828a0161305a565b935050608061310a89828a01613086565b92505060a061311b89828a01613086565b9150509295509295509295565b600080600080600080600060e0888a03121561314757613146612bd5565b5b60006131558a828b01612c23565b97505060206131668a828b01612c23565b96505060406131778a828b01612c59565b95505060606131888a828b01612c59565b94505060806131998a828b0161305a565b93505060a06131aa8a828b01613086565b92505060c06131bb8a828b01613086565b91505092959891949750929550565b600080604083850312156131e1576131e0612bd5565b5b60006131ef85828601612c23565b925050602061320085828601612c23565b9150509250929050565b61321381612e23565b811461321e57600080fd5b50565b6000813590506132308161320a565b92915050565b6000806040838503121561324d5761324c612bd5565b5b600061325b85828601612c23565b925050602061326c85828601613221565b9150509250929050565b61327f81613007565b82525050565b600079ffffffffffffffffffffffffffffffffffffffffffffffffffff82169050919050565b6132b481613285565b82525050565b6040820160008201516132d06000850182613276565b5060208201516132e360208501826132ab565b50505050565b60006040820190506132fe60008301846132ba565b92915050565b7f4e487b7100000000000000000000000000000000000000000000000000000000600052602260045260246000fd5b6000600282049050600182168061334b57607f821691505b60208210810361335e5761335d613304565b5b50919050565b60006040820190506133796000830185612ce4565b6133866020830184613019565b9392505050565b7f4e487b7100000000000000000000000000000000000000000000000000000000600052604160045260246000fd5b60006080820190506133d16000830187612da2565b6133de6020830186612df9565b6133eb6040830185612ce4565b6133f86060830184612ce4565b95945050505050565b600060c0820190506134166000830189612da2565b6134236020830188612df9565b6134306040830187612df9565b61343d6060830186612ce4565b61344a6080830185612ce4565b61345760a0830184612ce4565b979650505050505050565b60006040820190506134776000830185612df9565b6134846020830184612df9565b9392505050565b7f4e487b7100000000000000000000000000000000000000000000000000000000600052601160045260246000fd5b60006134c582613285565b91506134d083613285565b9250828201905079ffffffffffffffffffffffffffffffffffffffffffffffffffff8111156135025761350161348b565b5b92915050565b600061351382613285565b915061351e83613285565b9250828203905079ffffffffffffffffffffffffffffffffffffffffffffffffffff8111156135505761354f61348b565b5b92915050565b600060608201905061356b6000830186612df9565b6135786020830185612ce4565b6135856040830184612ce4565b949350505050565b6000819050919050565b6000819050919050565b60006135bc6135b76135b28461358d565b613597565b612d61565b9050919050565b6135cc816135a1565b82525050565b60006040820190506135e760008301856135c3565b6135f46020830184612ce4565b9392505050565b600061360682612c38565b915061361183612c38565b92508282039050818111156136295761362861348b565b5b92915050565b600061363a82612c38565b915061364583612c38565b925082820190508082111561365d5761365c61348b565b5b92915050565b60006040820190506136786000830185612df9565b6136856020830184612ce4565b9392505050565b60006040820190506136a16000830185612ce4565b6136ae6020830184612ce4565b9392505050565b600060a0820190506136ca6000830188612da2565b6136d76020830187612da2565b6136e46040830186612da2565b6136f16060830185612ce4565b6136fe6080830184612df9565b9695505050505050565b7f4e487b7100000000000000000000000000000000000000000000000000000000600052601260045260246000fd5b6000819050919050565b600061375c61375761375284613737565b613597565b612d61565b9050919050565b61376c81613741565b82525050565b60006040820190506137876000830185613763565b6137946020830184612ce4565b9392505050565b60006080820190506137b06000830187612da2565b6137bd6020830186612d6e565b6137ca6040830185612da2565b6137d76060830184612da2565b95945050505050565b7f4e487b7100000000000000000000000000000000000000000000000000000000600052602160045260246000fd5b7f4e487b7100000000000000000000000000000000000000000000000000000000600052603260045260246000fd5b600061384982612c38565b915061385483612c38565b92508261386457613863613708565b5b828204905092915050565b6000819050919050565b600061389461388f61388a8461386f565b613597565b612d61565b9050919050565b6138a481613879565b82525050565b60006040820190506138bf600083018561389b565b6138cc6020830184612ce4565b939250505056fea26469706673582212200e594f036500199d215d1418c036de42e7d406987c01897002bc49f301a68b7564736f6c63430008140033",
  "linkReferences": {},
  "deployedLinkReferences": {}
}